:020000040800F2
:10000000000400207D050008C1010008C3010008AC
:10001000C5010008C7010008C90100080000000070
:10002000000000000000000000000000CB010008FC
:10003000CD01000800000000CF010008D101000838
:10004000D3010008D3010008D3010008D301000840
:10005000D3010008D3010008D3010008D301000830
:10006000D3010008D3010008D3010008D301000820
:10007000D3010008D3010008D3010008D301000810
:10008000D3010008D3010008D3010008D301000800
:10009000D3010008D3010008D3010008D3010008F0
:1000A000D3010008D3010008D3010008D3010008E0
:1000B000D3010008D3010008D3010008D3010008D0
:1000C000D3010008D3010008D3010008D3010008C0
:1000D000D3010008D3010008D3010008D3010008B0
:1000E000D3010008D3010008D3010008D3010008A0
:1000F000D3010008D3010008D3010008D301000890
:10010000D3010008D3010008D3010008D30100087F
:10011000D3010008D3010008D3010008D30100086F
:10012000D3010008D3010008D3010008D30100085F
:10013000D3010008D3010008D3010008D30100084F
:10014000D3010008D3010008D3010008D30100083F
:10015000D3010008D3010008D3010008D30100082F
:10016000D3010008D3010008D3010008D30100081F
:10017000D3010008D3010008D3010008D30100080F
:10018000D3010008D3010008D3010008D3010008FF
:10019000D3010008D3010008D3010008D3010008EF
:1001A000D3010008D3010008D3010008D3010008DF
:1001B000D3010008D3010008D3010008D3010008CF
:1001C000FEE7FEE7FEE7FEE7FEE7FEE7FEE7FEE707
:1001D000FEE7FEE700B587B000F014F800F048F93C
:1001E0004FF47A5402A800F097F963210194019B1F
:1001F0005A1E0192002BFAD10B460139002BF5D182
:10020000F0E700BF1F49204B086B204A40F0020076
:100210000863086C40F400100864196821F4704108
:100220001960196841F420411960596841F0C00112
:100230005960996841F470419960D96821F470411E
:10024000D960D96841F4A041D960196A21F07F4191
:100250001962196A41F088411962136843F4004336
:10026000136013684FF0100C23F400435020112149
:100270001360C2F804C0D0611162136843F0010337
:1002800013607047003802400004024000540040F0
:1002900010B5DFF8A4E00C46DEF8001041F48071E0
:1002A000CEF8001042F2107C02E0BCF1010C41D00B
:1002B000DEF81410C907F8D54000C0B2CEF810001F
:1002C000DFF874C042F2107001E0013832D0DCF87F
:1002D00014108907F9D5DCF81810DFF85CE0CCF8C9
:1002E000104042F2107101E0013923D0DEF8140011
:1002F0000006F9D57BB1104802EB030C13780361BB
:1003000042F2107301E0013B14D041690906FAD5AD
:1003100001326245F2D1084942F2107301E0013B1B
:1003200008D04A695207FAD50B6843F400730020DD
:100330000B6010BD022010BD0054004030B5DFF846
:100340002CE1DEF8004044F480740D46CEF8004005
:1003500042F2107C02E0BCF1010C6BD0DEF814100C
:10036000CC07F8D54400E1B2CEF8101042F2107C70
:100370003E4902E0BCF1010C5CD048698007F9D528
:100380008869DFF8E8C00D6142F2107101E00139BF
:1003900050D0DCF814004007F9D5DCF8001041F427
:1003A0008071CCF80010DFF8C4C042F2107101E097
:1003B00001393FD0DCF81400C507F9D544F0010439
:1003C000DFF8A8E0CCF8104042F2107101E00139EA
:1003D00030D0DEF814008007F9D5012B2CD0DEF8E0
:1003E000001041F48061CEF80010DEF81810FBB167
:1003F000501E1E4903F1FF3E1D18C2F1010C0CEB0B
:100400000004744507D10C6824F480640C600C6807
:1004100044F400740C6042F2107301E0013B09D017
:100420004A695206FAD50C6900F8014FA842E6D194
:10043000002030BD022030BDDEF800300B4823F430
:100440008063CEF80030DEF81830DEF8001041F49A
:10045000007142F21073CEF8001001E0013BE9D0C8
:1004600041694906FAD503691370E1E70054004079
:1004700010B582B04FF0000C01230DF1060275217A
:1004800068208DF806C0FFF759FF844630B99DF803
:1004900006006828044604D04FF0FF0C604602B006
:1004A00010BD01230DF107026B218DF807C0FFF786
:1004B000EFFE84460028F1D107210DEB01028DF8F3
:1004C0000710012319212046FFF7E2FE8446002889
:1004D000E4D101230DF107021A2120468DF80730DF
:1004E000FFF7D6FE84460028D8D18DF807000123F7
:1004F0000DF107021B212046FFF7CAFE84460028A3
:10050000CCD101230DF107021C2120468DF807C034
:10051000FFF7BEFE8446C1E710B584B004460E2343
:100520006A463B216820FFF709FF20BBBDF800C0E9
:10053000BDF80220BDF8041003469CFA9CFC52BA98
:100540006CF30F0362F31F432360BDF80A30BDF85C
:1005500008205BBA6381BDF80C3052BA5BBA2281C5
:10056000BDF80620A38149BA034652BA61F30F03CE
:1005700062F31F43636004B010BD00BF0A480B491B
:100580000B4A002302E0D458C4500433C4188C42F0
:10059000F9D3084A084C002301E013600432A24258
:1005A000FBD3FFF717FE704700000020000000207B
:0C05B000BC050008000000200000002036
:040000050800057D6D
:00000001FF
